:020000040800F2
:10000000000005209D330108FDB5000805B6000875
:100010000DB6000815B600081DB600080000000067
:1000200000000000000000000000000021FD0008AA
:1000300025B600080000000031FF000899FF000805
:10004000ED330108ED330108ED330108ED3301080C
:10005000ED330108ED330108ED330108ED330108FC
:10006000ED330108ED330108ED330108ED330108EC
:10007000ED330108ED330108ED330108ED330108DC
:10008000ED330108ED330108ED330108ED330108CC
:10009000ED330108ED330108ED330108ED330108BC
:1000A000ED330108ED330108ED330108ED330108AC
:1000B000ED330108ED330108ED330108ED3301089C
:1000C000ED330108ED330108ED330108ED3301088C
:1000D000ED330108ED330108ED330108ED3301087C
:1000E000ED330108ED330108ED330108ED3301086C
:1000F000ED330108ED330108ED330108ED3301085C
:10010000ED330108ED330108ED330108ED3301084B
:10011000ED330108ED33010835B60008ED33010871
:10012000ED330108ED330108ED330108ED3301082B
:10013000ED330108ED330108ED330108ED3301081B
:10014000ED330108ED330108ED33010849B600082D
:10015000ED330108ED330108ED330108ED330108FB
:10016000ED330108ED330108ED330108ED330108EB
:10017000ED330108ED330108ED3301080000000004
:10018000ED330108ED330108ED330108ED330108CB
:10019000ED330108ED330108ED330108ED330108BB
:1001A0005DB60008ED33010871B60008ED330108B3
:1001B000ED330108ED330108ED330108ED3301089B
:0801C000ED330108ED330108E5
:1001D00053B94AB9002908BF00281CBF4FF0FF31AE
:1001E0004FF0FF3000F00CB8ADF1080C6DE904CE13
:1001F00013F0FEF8DDF804E0DDE9022304B07047F7
:10020000704700BF0348044B834202D0034B03B145
:100210001847704784000020840000200000000080
:100220000548064B1B1AD90F01EBA301491002D058
:10023000034B03B11847704784000020840000205E
:100240000000000010B5064C237843B9FFF7DAFF31
:10025000044B13B10448AFF300800123237010BD99
:10026000C401002000000000AC39010808B5054BAE
:100270001BB105490548AFF30080BDE80840FFF712
:10028000CFBF00BF00000000C8010020AC3901084A
:1002900080B500AF032000F092FB00200CF0B6FF09
:1002A0000CF08CFF0023184680BD000080B400AF26
:1002B000064B1B781A46064B1B681344044A13600E
:1002C00000BFBD465DF8047B704700BF04000020FE
:1002D000E001002080B400AF034B1B681846BD4608
:1002E0005DF8047B704700BFE001002080B584B05A
:1002F00000AF7860FFF7EEFFB8607B68FB60FB68DB
:10030000B3F1FF3F05D00A4B1B781A46FB68134434
:10031000FB6000BFFFF7DEFF0246BB68D31AFA6836
:100320009A42F7D800BF00BF1037BD4680BD00BF5E
:100330000400002080B584B000AF78600023FB7318
:100340007B68002B01D1012331E07B681B6C002B03
:1003500009D178680BF0D2FA7B6800225A647B6876
:10036000002283F83C207B681B6C03F01003002BF9
:1003700016D17B681A6C104B134043F002027B6865
:100380001A64786800F074F97B6800225A647B680C
:100390001B6C23F0030343F001027B681A6401E045
:1003A0000123FB737B68002283F83C20FB7B18460B
:1003B0001037BD4680BD00BFFDEEFFFF80B485B0A5
:1003C00000AF786039600023FB607B6893F83C30B5
:1003D000012B01D102233AE17B68012283F83C2002
:1003E0003B681B68092B3AD93B681B68B3F1004F87
:1003F00035D07B681B68D9683B681B689BB21A467E
:1004000013465B0013441E3B072202FA03F3DA4350
:100410007B681B680A40DA603B681B688F4A93421E
:100420000AD17B681B68D9683B689B681A067B68A1
:100430001B680A43DA6039E07B681B68D9683B684F
:100440009A683B681B689BB2184603465B000344EE
:100450001E3B9A407B681B680A43DA6026E07B6893
:100460001B6819693B681B689BB21A4613465B0000
:10047000134403F01F03072202FA03F3DA437B68F5
:100480001B680A401A617B681B6819693B689A6897
:100490003B681B689BB2184603465B00034403F0AD
:1004A0001F039A407B681B680A431A613B685B68BC
:1004B000062B24D87B681B68596B3B685A68134627
:1004C0009B001344053B1F2202FA03F3DA437B68C7
:1004D0001B680A405A637B681B68596B3B681B6842
:1004E0009BB218463B685A6813469B001344053B71
:1004F00000FA03F27B681B680A435A634CE03B68CE
:100500005B680C2B24D87B681B68196B3B685A68A6
:1005100013469B001344233B1F2202FA03F3DA43E2
:100520007B681B680A401A637B681B68196B3B6811
:100530001B689BB218463B685A6813469B001344DD
:10054000233B00FA03F27B681B680A431A6323E02B
:100550007B681B68D96A3B685A6813469B00134442
:10056000413B1F2202FA03F3DA437B681B680A400F
:10057000DA627B681B68D96A3B681B689BB21846C5
:100580003B685A6813469B001344413B00FA03F250
:100590007B681B680A43DA627B681B68304A9342B7
:1005A0000AD13B681B68B3F1004F05D12D4B5B6846
:1005B0002C4A23F4400353607B681B68284A93420B
:1005C0000FD13B681B68122B0BD1264B5B68254A69
:1005D00023F400035360234B5B68224A43F48003F7
:1005E00053607B681B681E4A93422BD13B681B6893
:1005F0001A4A934203D03B681B68112B22D1194B36
:100600005B68184A23F480035360164B5B68154AF5
:1006100043F4000353603B681B68104A934211D1B6
:10062000114B1B68114AA2FB03239A0C13469B0033
:1006300013445B00FB6002E0FB68013BFB60FB686E
:10064000002BF9D17B68002283F83C200023184658
:100650001437BD465DF8047B704700BF12000010E0
:1006600000200140002301400800002083DE1B43DE
:1006700080B483B000AF7860784B5B68774A23F42E
:1006800040335360754B5A687B685B68734913430A
:100690004B607B681B685A687B681B6822F4807219
:1006A0005A607B681B6859687B681B691A027B6803
:1006B0001B680A435A607B681B685A687B681B6822
:1006C00022F040725A607B681B6859687B689A68A0
:1006D0007B681B680A435A607B681B689A687B6862
:1006E0001B6822F400629A607B681B6899687B68CB
:1006F000DA687B681B680A439A607B689B6A584A81
:10070000934222D07B681B689A687B681B6822F042
:1007100070629A607B681B6899687B689A6A7B68DC
:100720001B680A439A607B681B689A687B681B6831
:1007300022F040529A607B681B6899687B68DA6A8D
:100740007B681B680A439A600FE07B681B689A68A5
:100750007B681B6822F070629A607B681B689A68ED
:100760007B681B6822F040529A607B681B689A681D
:100770007B681B6822F002029A607B681B6899689C
:100780007B689B695A007B681B680A439A607B6898
:1007900093F82030002B1BD07B681B685A687B685D
:1007A0001B6842F400625A607B681B685A687B6869
:1007B0001B6822F460425A607B681B6859687B683A
:1007C0005B6A013B5A037B681B680A435A6007E077
:1007D0007B681B685A687B681B6822F400625A6059
:1007E0007B681B68DA6A7B681B6822F47002DA6235
:1007F0007B681B68D96A7B68DB69013B1A057B68EB
:100800001B680A43DA627B681B689A687B681B680E
:1008100022F400729A607B681B6899687B6893F881
:1008200030305A027B681B680A439A607B681B68F9
:100830009A687B681B6822F480629A607B681B68F8
:1008400099687B685B699A027B681B680A439A60B7
:1008500000BF0C37BD465DF8047B704700230140A4
:100860000100000F80B485B000AF78607B6803F0B2
:100870000703FB600B4BDB68BB60BA684FF6FF03F6
:100880001340BB60FB681A02BB681A43064B134354
:10089000BB60044ABB68D36000BF1437BD465DF837
:1008A000047B704700ED00E00000FA0580B400AF63
:1008B000044BDB681B0A03F007031846BD465DF8CE
:1008C000047B704700ED00E080B483B000AF0346C6
:1008D000FB7197F90730002B0BDBFB7903F01F024C
:1008E000074997F907305B09012000FA02F241F845
:1008F000232000BF0C37BD465DF8047B704700BF66
:1009000000E100E080B483B000AF03463960FB71C2
:1009100097F90730002B0ADB3B68DAB20C4997F9EC
:1009200007301201D2B20B4483F800230AE03B687F
:10093000DAB20849FB7903F00F03043B1201D2B28B
:100940000B441A7600BF0C37BD465DF8047B704738
:1009500000E100E000ED00E080B489B000AFF86095
:10096000B9607A60FB6803F00703FB61FB69C3F1C0
:100970000703042B28BF0423BB61FB690433062B48
:1009800002D9FB69033B00E000237B614FF0FF329B
:10099000BB6902FA03F3DA43BB681A407B699A40E9
:1009A0004FF0FF317B6901FA03F3D9437B680B40B9
:1009B000134318462437BD465DF8047B704780B565
:1009C00082B000AF78607868FFF74CFF00BF08374F
:1009D000BD4680BD80B586B000AF0346B9607A6081
:1009E000FB7300237B61FFF761FF78617A68B96868
:1009F0007869FFF7B1FF024697F90F3011461846A4
:100A0000FFF780FF00BF1837BD4680BD80B582B0BC
:100A100000AF0346FB7197F907301846FFF754FF04
:100A200000BF0837BD4680BD80B582B000AF78609A
:100A30007B68002B01D1012354E07B685B7FDBB234
:100A4000002B05D17B6800221A7778680AF0D2FF64
:100A50007B6802225A777B681B79002B0CD17B685C
:100A60001B68224A5A617B681B689A687B681B680E
:100A700022F018029A600CE07B6899687B68DB685A
:100A80001A46786800F034F80346002B01D00123A1
:100A900028E07B685B79002B05D17B681B684FF0F1
:100AA000FF321A6104E07B681B687A6812691A6178
:100AB0007B681B689B6823F060017B685A697B68D0
:100AC0001B680A439A607B681B689B6823F080015F
:100AD0007B689A697B681B680A439A607B6801227D
:100AE0005A77002318460837BD4680BDB71DC1049C
:100AF00080B487B000AFF860B9607A600023FB75FE
:100B00001F233B61BB6803F00103002B02D10123CB
:100B1000FB7563E000BF3B695A1E3A61002B09D0A8
:100B20003B6903F01F03BA6822FA03F303F00103E1
:100B3000002BF0D07B68182B46D801A252F823F086
:100B4000CF0B0008C90B0008C90B0008C90B00082F
:100B5000C90B0008C90B0008C90B0008C90B000825
:100B6000BD0B0008C90B0008C90B0008C90B000821
:100B7000C90B0008C90B0008C90B0008C90B000805
:100B8000B10B0008C90B0008C90B0008C90B00080D
:100B9000C90B0008C90B0008C90B0008C90B0008E5
:100BA000A50B00083B69062B13D90123FB7510E048
:100BB0003B69072B0FD90123FB750CE03B690F2B19
:100BC0000BD90123FB7508E00123FB7506E000BF8C
:100BD00004E000BF02E000BF00E000BFFB7D002B8F
:100BE0000DD1FB681B68BA685A61FB681B689B687B
:100BF00023F01801FB681B687A680A439A60FB7D42
:100C000018461C37BD465DF8047B704780B582B03E
:100C100000AF78607B68002B01D1012369E07B681D
:100C200093F83530DBB2002B02D178680AF036FF3A
:100C30007B68022283F835207B689B69002B02D0F9
:100C40007B6800225A627B681B6819687B681A6897
:100C50002A4B0B4013607B681B6819687B685A68D5
:100C60007B685B691A437B68DB681A437B681B6996
:100C70001A437B689B681A437B689B691A437B68AD
:100C80001B6A1A437B685B6A1A437B689B6A1A4338
:100C90007B68DB6A1A437B681B6B1A437B681B68A3
:100CA0000A431A607B685B68102B12D17B681B7F3C
:100CB0001A467B685B7F1B021A437B689B7F1B0481
:100CC00042EA03017B68DB7F1A067B681B680A43E4
:100CD0009A617B681B68DA687B681B6842F01E02B9
:100CE000DA607B680022DA647B68012283F83520B1
:100CF000002318460837BD4680BD00BF07F0E0FF5F
:100D000080B586B000AFF860B9607A603B600023C0
:100D1000FB75FB689B6D3B61FB6893F83430012BDE
:100D200001D1022348E0FB68012283F83420FB68EC
:100D300093F83530DBB2012B37D1FB68022283F800
:100D40003520FB6800225A653B687A68B968F86804
:100D500000F042F8FB68DB6D3F229A403B699A60E5
:100D6000FB681B681A68FB681B6842F016021A6071
:100D7000FB681B685A69FB681B6842F080025A6175
:100D8000FB681B6C002B07D0FB681B681A68FB68AC
:100D90001B6842F008021A60FB681B681A68FB684F
:100DA0001B6842F001021A6005E0FB68002283F82C
:100DB00034200223FB75FB7D18461837BD4680BDE5
:100DC00080B483B000AF78607B685B6D18460C37E9
:100DD000BD465DF8047B704780B485B000AFF86015
:100DE000B9607A603B60FB681B681A68FB681B6827
:100DF00022F480221A60FB681B683A685A60FB681C
:100E00009B68402B08D1FB681B687A689A60FB6876
:100E10001B68BA68DA6007E0FB681B68BA689A600A
:100E2000FB681B687A68DA6000BF1437BD465DF85E
:100E3000047B704780B582B000AF78607B68002B80
:100E400001D1012339E07B6893F83930DBB2002B04
:100E500006D17B68002283F8382078680AF00EFFFC
:100E60007B68022283F839207B681B681B6823F4A7
:100E700040317B685A687B681B680A431A607B684C
:100E80001B685B6B23F007017B689A687B681B68B3
:100E90000A435A637B681B681A6C0A4B13407A68D2
:100EA000D1687A6812680B4313647B680022DA63A6
:100EB0007B68012283F83920002318460837BD4695
:100EC00080BD00BF00C0FFFF80B584B000AF786078
:100ED0007B681B685B68FB607B681B681B68BB608A
:100EE000FB6803F00103002B26D0BB6803F480737A
:100EF000002B21D07B681B681A687B681B6822F472
:100F000080721A607B68DB6B43F001027B68DA63F6
:100F10007B681B6801229A607B68042283F8392071
:100F20007B68002283F838207B685B69002B03D044
:100F30007B685B6978689847FB6803F02003002BA7
:100F400026D0BB6803F40053002B21D07B681B68BC
:100F50001A687B681B6822F400521A607B681B6861
:100F600020229A607B68DB6B43F002027B68DA63C5
:100F70007B68042283F839207B68002283F83820BC
:100F80007B685B69002B03D07B685B697868984756
:100F9000FB6803F00803002B26D0BB6803F4006352
:100FA000002B21D07B681B681A687B681B6822F4C1
:100FB00000621A607B681B6808229A607B68DB6BA2
:100FC00043F004027B68DA637B68042283F83920EB
:100FD0007B68002283F838207B685B69002B03D094
:100FE0007B685B6978689847FB6803F00403002B13
:100FF00013D0BB6803F48063002B0ED07B681B68A2
:101000001A687B681B6822F480621A607B681B6820
:1010100004229A60786800F053F8FB6803F002033A
:10102000002B24D0BB6803F40073002B1FD07B6817
:101030001B681A687B681B6822F400721A607B6860
:101040001B6802229A607B68DA6B7B68DA637B68D4
:10105000012283F839207B68002283F838207B68DE
:101060001B69002B03D07B681B6978689847FB6875
:1010700003F01003002B1FD0BB6803F48053002B38
:101080001AD07B681B681A687B681B6822F4805240
:101090001A607B681B6810229A607B68DA6B7B6839
:1010A000DA637B68012283F839207B68002283F8A9
:1010B0003820786800F00EF800BF1037BD4680BDBC
:1010C00080B483B000AF786000BF0C37BD465DF8D8
:1010D000047B704780B483B000AF786000BF0C37EA
:1010E000BD465DF8047B704780B487B000AF786080
:1010F00039607B685B68B3F5403F7B6893F83830B4
:10110000012B01D1022379E07B68012283F838208A
:101110007B68022283F839203B681B0118337A6808
:1011200013443B613B695A683B699B681B0413434A
:101130007B61354BFB603B695B680A2B03D03B69E5
:101140005B68092B07D13B69DB6803F07F437A6951
:1011500013437B6105E03B69DB681B067A69134337
:101160007B613B68002B20D17B681B685A6AFB6857
:10117000DB4302EA03017B681B687A690A435A620F
:101180007B681B683A6912689A613B695B680A2B45
:1011900003D03B695B68092B27D13B69DA687B6820
:1011A0001B6822F07F429A621FE07B681B68DA6945
:1011B000FB68DB4302EA03017B681B687A690A4328
:1011C000DA617B681B683A6912681A613B695B687F
:1011D0000A2B03D03B695B68092B06D13B69DA68AF
:1011E0007B681B6822F07F421A627B68012283F8C9
:1011F00039207B68002283F83820002318461C37EA
:10120000BD465DF8047B70470F0003FF80B584B0D6
:1012100000AF78607B68002B01D1012386E07B68FA
:10122000D3F88430002B06D17B682022C3F88420B9
:1012300078680AF097FD3F4B5B6C3E4A43F480436D
:1012400053643C4B5B6C03F48043BB60BB683A4B1C
:101250005B68394A23F400035360374B5A687B6854
:101260009B68354913434B60334B5B687B681B6855
:1012700003F580531B687A68126843F0010302F596
:1012800080521360FFF726F8F86011E0FFF722F8AC
:101290000246FB68D31AB3F5FA7F09D97B680422AA
:1012A000C3F888207B68E022C3F8842001233DE056
:1012B0007B681B6803F580531B6803F00103002B58
:1012C000E4D1786800F07AF9786800F025FA786857
:1012D00000F07BFA7B685B681A460021786800F0B2
:1012E000E3F97B681B68DA6B7B681B6842F4027267
:1012F000DA637B681B68D3F80C117B681A680F4BA4
:101300000B43C2F80C317B681B68D3F810217B6853
:101310001B6842F40312C3F810217B680022C3F853
:1013200088207B681022C3F88420002318461037D9
:10133000BD4680BD00380240003801406000020018
:1013400080B584B000AF786039607B681B681B682B
:10135000FB60FA68534B1340FB603B689B7B5B066A
:101360003A68127C002A02D14FF4000200E0002209
:1013700013433A68527C002A02D14FF4800200E005
:1013800000221A433B689B681A433B68DB7F1B04BF
:101390001A433B685B6913433A68927F002A02D183
:1013A0004FF4005200E000221A433B681B7F1B03EE
:1013B0001A433B689B691A433B681B799B021343A2
:1013C0003A6892F82020002A02D14FF4007200E01F
:1013D00000221A433B68DB7BDB011A433B685B6AF4
:1013E0001A433B6893F828301B011343FA681343F0
:1013F000FB607B681B68FA681A607B681B681B6867
:10140000FB600120FEF772FF7B681B68FA681A60B8
:101410007B681B689B69FB60FA684FF64173134059
:10142000FB603B689B6C1B043A6892F84C20002AD6
:1014300001D1802200E000221A433B681B6D134358
:101440003A6892F85520012A01D1082200E00022D2
:1014500013433A6892F85620012A01D1042200E091
:10146000002213433A6892F85420012A01D1022243
:1014700000E000221343FA681343FB607B681B689B
:10148000FA689A617B681B689B69FB600120FEF724
:101490002DFF7B681B68FA689A6100BF1037BD4654
:1014A00080BD00BF0F8120FD80B584B000AF7860A3
:1014B00039607B681B6803F580539B69FB60FA68A1
:1014C0003D4B1340FB603B681B7B002B02D14FF070
:1014D000806200E000223B685B7B5B0613433A6856
:1014E000527F002A02D14FF4801200E000221A43FA
:1014F0003B689B7B5B051A433B685B691A433B680F
:101500001B7FDB011A433B689B7F9B011A433B68AF
:101510001B6A1A433B6893F824309B001343FA6814
:101520001343FB607B681B6803F580531A46FB6816
:1015300093617B681B6803F580539B69FB60012006
:10154000FEF7D4FE7B681B6803F580531A46FB68E0
:1015500093613B681B795A063B689B681A433B685A
:101560009B691A433B681B691A433B6893F8253013
:10157000DB011A433B689B6A9B001A433B681B686C
:1015800013437A68126843F4000302F58052136033
:101590007B681B6803F580531B68FB600120FEF726
:1015A000A5FE7B681B6803F580531A46FB68136031
:1015B00000BF1037BD4680BD233FDEF880B5A6B022
:1015C00000AF7860012387F84430012387F8453065
:1015D0000023FB63002387F85330012387F8523040
:1015E000002387F85030012387F84230012387F821
:1015F0003830002387F85430002387F84330002325
:10160000BB65002387F85C300023FB67002387F865
:1016100080300023C7F88430002387F88A30002305
:1016200087F888304FF48043BB644FF40063FB6459
:10163000002387F8893007F1340319467868FFF7EB
:101640007FFE01233B7501237B75012387F825303D
:101650000123BB750023FB61002387F8243000239E
:1016600087F826300023BB62012387F82C30012342
:101670003B734FF480333B614FF480033B624FF484
:101680000053BB61012387F82D3000233B63002307
:10169000BB6007F1080319467868FFF705FF00BF34
:1016A0009837BD4680BD000080B487B000AFF860B9
:1016B000B9607A607B6805331B781B027A68043254
:1016C000127813437B61BA68114B13441A467B6945
:1016D00013607B6803331B781A067B6802331B7820
:1016E0001B041A437B6801331B781B0213437A687F
:1016F000127813437B61BA68064B13441A467B6920
:10170000136000BF1C37BD465DF8047B704700BF07
:10171000408002404480024080B485B000AF7860D1
:101720000023FB603EE07B68D968FA6813469B00A3
:101730001344DB000B44BB60BB6800221A60BB682B
:1017400000225A60BB6800229A60BB680022DA60FF
:10175000B9687B68FA68063243F82210BB681B68D8
:1017600043F48012BB681A60FB68022B0CD87B68BC
:10177000D968FB685A1C13469B001344DB000B44DA
:101780001A46BB68DA6004E07B68DB681A46BB680F
:10179000DA60BB681B6843F44002BB681A60FB68F0
:1017A0000133FB60FB68032BBDD97B6800229A6282
:1017B0007B68DA687B681B6803F580531A6100BF99
:1017C0001437BD465DF8047B704780B485B000AF28
:1017D00078600023FB6048E07B681969FA6813466B
:1017E0009B001344DB000B44BB60BB6800221A6003
:1017F000BB6800225A60BB6800229A60BB68002266
:10180000DA60BB6800221A62BB6800225A62BB68B9
:101810004FF000421A607B685B6943F48042BB680A
:101820005A60BB685B6823F00042BB685A60B968C5
:101830007B68FA68123243F82210FB68022B0CD83E
:101840007B681969FB685A1C13469B001344DB0034
:101850000B441A46BB68DA6004E07B681B691A46D1
:10186000BB68DA60FB680133FB60FB68032BB3D90C
:101870007B680022DA657B6800221A667B6800229A
:101880009A667B680022DA667B6800229A657B682C
:101890001A697B681B6803F58053DA6000BF143750
:1018A000BD465DF8047B704780B489B000AF7860B6
:1018B00039600023FB6100237B6100233B6100232F
:1018C000BB610023FB6175E10122FB6902FA03F3AE
:1018D0007B613B681B687A6913403B613A697B69AD
:1018E0009A4240F064813B685B6803F00303012B7C
:1018F00005D03B685B6803F00303022B30D17B68A3
:101900009B68BB61FB695B00032202FA03F3DB43C4
:10191000BA691340BB613B68DA68FB695B0002FA95
:1019200003F3BA691343BB617B68BA699A607B6849
:101930005B68BB610122FB6902FA03F3DB43BA690E
:101940001340BB613B685B681B0903F00102FB6944
:1019500002FA03F3BA691343BB617B68BA695A6040
:101960003B685B6803F00303032B17D07B68DB68DD
:10197000BB61FB695B00032202FA03F3DB43BA6934
:101980001340BB613B689A68FB695B0002FA03F392
:10199000BA691343BB617B68BA69DA603B685B680C
:1019A00003F00303022B23D1FB69DA087B680832BA
:1019B00053F82230BB61FB6903F007039B000F2241
:1019C00002FA03F3DB43BA691340BB613B681A694F
:1019D000FB6903F007039B0002FA03F3BA691343A0
:1019E000BB61FB69DA087B680832B96943F82210E9
:1019F0007B681B68BB61FB695B00032202FA03F38F
:101A0000DB43BA691340BB613B685B6803F00302C8
:101A1000FB695B0002FA03F3BA691343BB617B689D
:101A2000BA691A603B685B6803F44033002B00F02E
:101A3000BE80664B5B6C654A43F480435364634BE2
:101A40005B6C03F48043FB60FB68614AFB699B08A5
:101A5000023352F82330BB61FB6903F003039B00A0
:101A60000F2202FA03F3DB43BA691340BB617B68C0
:101A7000584A934237D07B68574A934231D07B68AB
:101A8000564A93422BD07B68554A934225D07B68B7
:101A9000544A93421FD07B68534A934219D07B68C3
:101AA000524A934213D07B68514A93420DD07B68CF
:101AB000504A934207D07B684F4A934201D1092391
:101AC00012E00A2310E008230EE007230CE00623AF
:101AD0000AE0052308E0042306E0032304E00223D0
:101AE00002E0012300E00023FA6902F00302920001
:101AF0009340BA691343BB613549FB699B080233C4
:101B0000BA6941F823203D4B9B68BB613B69DB43CD
:101B1000BA691340BB613B685B6803F48013002B18
:101B200003D0BA693B691343BB61344ABB69936014
:101B3000324BDB68BB613B69DB43BA691340BB6175
:101B40003B685B6803F40013002B03D0BA693B6960
:101B50001343BB61294ABB69D360284B5B68BB61F7
:101B60003B69DB43BA691340BB613B685B6803F4C4
:101B70000033002B03D0BA693B691343BB611F4A92
:101B8000BB6953601D4B1B68BB613B69DB43BA6992
:101B90001340BB613B685B6803F48033002B03D0C8
:101BA000BA693B691343BB61144ABB691360FB69A3
:101BB0000133FB61FB690F2B7FF686AE00BF00BFD0
:101BC0002437BD465DF8047B704700BF00380240F3
:101BD00000380140000002400004024000080240BA
:101BE000000C0240001002400014024000180240A5
:101BF000001C02400020024000240240003C014042
:101C000080B485B000AF78600B467B807B681A6932
:101C10007B881340002B02D00123FB7301E00023DB
:101C2000FB73FB7B18461437BD465DF8047B704799
:101C300080B483B000AF78600B467B8013467B7026
:101C40007B78002B03D07A887B689A6103E07B88DD
:101C50001A047B689A6100BF0C37BD465DF8047BAF
:101C6000704780B586B002AF78607B68002B01D1E9
:101C7000012359E07B681B68FB607B6893F8D533D0
:101C8000DBB2002B06D17B68002283F8D42378686E
:101C900011F0D6F87B68032283F8D523FB68B3F1F3
:101CA000A04F02D17B6800229A717B681B6818469E
:101CB00008F045FB7B6818687B681A7C8DF800206B
:101CC00004330ECB08F0D0FA0346002B05D07B6816
:101CD000022283F8D523012326E07B681B680121BB
:101CE000184608F03DFB0346002B05D07B68022216
:101CF00083F8D523012317E07B6818687B681A7C7A
:101D00008DF8002004330ECB08F0E6FC0346002BD0
:101D100005D07B68022283F8D523012304E07B6889
:101D2000012283F8D523002318461037BD4680BD15
:101D300090B58BB004AF7860084611461A4603464A
:101D4000FB700B46BB7013467B703B8E7B617B68E0
:101D500093F8D433012B01D102239DE07B6801224B
:101D600083F8D423FA78796813461B019B1A9B00E9
:101D70000B44193300221A70FA78796813461B0154
:101D80009B1A9B000B4414337A781A70FA7879689E
:101D900013461B019B1A9B000B441533FA781A70EB
:101DA000FA78796813461B019B1A9B000B44263373
:101DB00097F82C201A70FA78BB7803F07F03D8B21A
:101DC000796813461B019B1A9B000B44163302468D
:101DD0001A70FB781946786800F0A4FB97F9023076
:101DE000002B0ADAFA78796813461B019B1A9B00CC
:101DF0000B44173301221A7009E0FA787968134608
:101E00001B019B1A9B000B44173300221A707B683E
:101E10001B68184608F0B8FD386197F82C30012B84
:101E20000BD197F82830012B07D13B69002B04D147
:101E30007B69BC2B01D9BC237B61FA787968134696
:101E40001B019B1A9B000B44183397F828201A702B
:101E5000FA787B6998B2796813461B019B1A9B003C
:101E60000B44283302461A807B6818687B699BB252
:101E70007C78BA78F978029397F82C30019397F828
:101E800028300093234608F0A7FD0346FB737B68C8
:101E9000002283F8D423FB7B18461C37BD4690BD37
:101EA00080B582B000AF7860084611461A460346F6
:101EB000FB700B46BB7013467B70FA78796813464B
:101EC0001B019B1A9B000B441733BA781A70FA78DF
:101ED000796813461B019B1A9B000B4426337A78C2
:101EE0001A703B7C002B14D1FA78796813461B01D9
:101EF0009B1A9B000B442A3303221A70FA787968E4
:101F000013461B019B1A9B000B4419333A7F1A702E
:101F100009E0FA78796813461B019B1A9B000B4471
:101F20002A3302221A707B78032B00F2028101A26D
:101F300052F823F0451F00081D2100080920000861
:101F4000932000083B7C012B40F0F580BB78002BF0
:101F50002DD13B8B002B09D1FA78796813461B01F0
:101F60009B1A9B000B443D3301221A70FA78796862
:101F700013461B019B1A9B000B443D331B78002B1F
:101F80000AD1FA78796813461B019B1A9B000B440F
:101F90002A3300221A70CEE0FA78796813461B01C2
:101FA0009B1A9B000B442A3302221A70C3E0FA7872
:101FB000796813461B019B1A9B000B441A331B784C
:101FC000012B40F0B880FA78796813461B019B1A00
:101FD0009B000B443C331B78002B0AD1FA787968BC
:101FE00013461B019B1A9B000B442A3300221A70D4
:101FF000A1E0FA78796813461B019B1A9B000B44F9
:102000002A3302221A7096E0BB78002B20D1FA788E
:10201000796813461B019B1A9B000B443D331B78C8
:10202000002B0AD1FA78796813461B019B1A9B0092
:102030000B442A3300221A707EE0FA78796813463E
:102040001B019B1A9B000B442A3302221A7073E077
:10205000FA78796813461B019B1A9B000B443C33AA
:102060001B78002B0AD1FA78796813461B019B1A5A
:102070009B000B442A3300221A705DE0FA787968DD
:1020800013461B019B1A9B000B442A3302221A7031
:1020900052E0BB78002B20D1FA78796813461B01F7
:1020A0009B1A9B000B443D331B78002B0AD1FA7816
:1020B000796813461B019B1A9B000B442A330022AC
:1020C0001A7039E0FA78796813461B019B1A9B0055
:1020D0000B442A3302221A702EE0FA7879681346EC
:1020E0001B019B1A9B000B443C331B78002B0AD12D
:1020F000FA78796813461B019B1A9B000B442A331C
:1021000000221A7018E0FA78796813461B019B1AAE
:102110009B000B442A3302221A700DE0FA7879688A
:1021200013461B019B1A9B000B442A3300221A7092
:1021300002E000BF00E000BFFA78796813461B0197
:102140009B1A9B000B442C337A691A60FA78398BFE
:10215000786813461B019B1A9B00034434331960B3
:10216000FA78796813461B019B1A9B000B444C3389
:1021700000221A70FA78796813461B019B1A9B009B
:102180000B44383300221A60FA78796813461B0131
:102190009B1A9B000B441533FA781A70FA78796809
:1021A00013461B019B1A9B000B444D3300221A70EF
:1021B0007B681868FA7813461B019B1A9B00103342
:1021C0007A681344191D7B689B791A4608F030FD24
:1021D000034618460837BD4680BD00BF80B586B0AF
:1021E00000AF78607B681B683B613B69FB607B6884
:1021F0001B68184608F02AFA0346012B40F0FB80C2
:102200007B681B68184608F0EDF90346002B00F0C8
:10221000F1807B681B68184608F0E4F9034603F474
:102220000013B3F5001F04D17B681B684FF4001244
:102230005A617B681B68184608F0D4F9034603F41A
:102240008013B3F5801F04D17B681B684FF48012A4
:102250005A617B681B68184608F0C4F9034603F00E
:102260008063B3F1806F04D17B681B684FF080629C
:102270005A617B681B68184608F0B4F9034603F0FE
:102280000203022B03D17B681B6802225A617B6820
:102290001B68184608F0A6F9034603F00053B3F193
:1022A000005F20D17B681B684FF000525A61FB68C9
:1022B00003F588631B6803F00103002B13D1102181
:1022C000386908F099F8386908F0C8F87B685B7AD3
:1022D000022B05D17B681B680121184608F0B4FA6F
:1022E000786810F03BFE7B681B68184608F07AF9A6
:1022F000034603F08073B3F1807F02D1786801F068
:102300004DFD7B681B68184608F06CF9034603F026
:102310000803082B06D1786810F004FE7B681B6860
:1023200008225A617B681B68184608F05BF903466F
:1023300003F00073B3F1007F39D17B681B68184646
:1023400008F0F0FEB86000237B6125E07B6903F0B4
:102350000F03BA6822FA03F303F00103002B18D02D
:102360007B695A01FB68134403F5A0631B6803F4FF
:102370000043B3F5004F06D17B69DBB2194678689C
:1023800000F005F905E07B69DBB21946786800F0DA
:1023900067FF7B6901337B617B685B791A467B69E8
:1023A0009342D3D37B681B684FF000725A617B68FD
:1023B0001B68184608F016F9034603F01003102BAB
:1023C00001D1012300E00023002B14D07B681B689F
:1023D0009A697B681B6822F010029A61786801F0A4
:1023E000FEFB7B681B689A697B681B6842F01002E1
:1023F0009A6100E000BF1837BD4680BD80B582B04D
:1024000000AF78607B6893F8D433012B01D10223AD
:1024100013E07B68012283F8D4237B681B680121C9
:10242000184608F078FA7B681B68184607F076FFB4
:102430007B68002283F8D423002318460837BD4662
:1024400080BD80B582B000AF78607B6893F8D433EC
:10245000012B01D102230DE07B68012283F8D423F4
:102460007B681B68184608F0CBFF7B68002283F866
:10247000D423002318460837BD4680BD80B582B0FE
:1024800000AF78607B681B68184608F01AFA0346AC
:1024900018460837BD4680BD80B483B000AF786071
:1024A0000B46FB70FA78796813461B019B1A9B0058
:1024B0000B444C331B7818460C37BD465DF8047B43
:1024C000704780B483B000AF78600B46FB70FA7839
:1024D000796813461B019B1A9B000B4438331B6819
:1024E00018460C37BD465DF8047B704780B582B056
:1024F00000AF78607B681B68184608F05CFA0346FA
:1025000018460837BD4680BD80B582B000AF786000
:102510007B681B68184608F037FA034618460837E8
:10252000BD4680BD80B483B000AF78600B46FB70C1
:10253000FA78796813461B019B1A9B000B441A33E7
:1025400000221A70FA78796813461B019B1A9B00C7
:102550000B441B3300221A70FA78796813461B016A
:102560009B1A9B000B44253300221A70FA78796875
:1025700013461B019B1A9B000B44243300221A7044
:10258000002318460C37BD465DF8047B704780B5C4
:1025900086B000AF78600B46FB707B681B687B6180
:1025A0007B693B617B681B68FA781146184608F026
:1025B0002CF8034603F00403042B1AD1FB785A01CC
:1025C0003B69134403F5A0631A4604239360FA7829
:1025D000796813461B019B1A9B000B444D3307225D
:1025E0001A707B681B68FA781146184608F0ABFD34
:1025F0009EE07B681B68FA781146184608F005F8DB
:10260000034603F48073B3F5807F1BD1FB785A0136
:102610003B69134403F5A0631A464FF4807393603B
:10262000FA78796813461B019B1A9B000B444D33C3
:1026300008221A707B681B68FA781146184608F061
:1026400082FD75E07B681B68FA781146184607F032
:10265000DCFF034603F00803082B1AD1FB785A016C
:102660003B69134403F5A0631A4608239360FA7884
:10267000796813461B019B1A9B000B444D330622BD
:102680001A707B681B68FA781146184608F05BFDE3
:102690004EE07B681B68FA781146184607F0B5FFD4
:1026A000034603F48063B3F5806F1BD1FB785A01B6
:1026B0003B69134403F5A0631A464FF480639360AB
:1026C000FA78796813461B019B1A9B000B444D3323
:1026D00009221A707B681B68FA781146184608F0C0
:1026E00032FD25E07B681B68FA781146184607F032
:1026F0008CFF034603F08003802B19D1FB785A012D
:102700003B69134403F5A0631A4680239360FA786B
:10271000796813461B019B1A9B000B444D3307221B
:102720001A707B681B68FA781146184608F00BFD92
:102730007B681B68FA781146184607F066FF034667
:1027400003F40073B3F5007F12D17B681B68FA783D
:102750001146184608F0F7FCFB785A013B69134410
:1027600003F5A0631A464FF40073936000F075BD43
:102770007B681B68FA781146184607F046FF034647
:1027800003F00103012B40F02881FB785A013B69DB
:10279000134403F5A0631A4620239360FA787968FE
:1027A00013461B019B1A9B000B441B331B78012B08
:1027B00019D1FA78796813461B019B1A9B000B44C8
:1027C0001B3300221A70FB785A013B69134403F54E
:1027D000A0635B68FA7851013A690A4402F5A06285
:1027E00023F4803353607B689B79002B1BD0FA78ED
:1027F000796813461B019B1A9B000B443033196800
:10280000FB785A013B69134403F5A0631B69C3F3CA
:102810001203FA78C91A786813461B019B1A9B00A9
:10282000034438331960FA78796813461B019B1A00
:102830009B000B444D3301221A70FA7879681346D5
:102840001B019B1A9B000B44443300221A60FB7847
:102850005A013B69134403F5A0631A4601239360B0
:10286000FA78796813461B019B1A9B000B442633A8
:102870001B78002B0AD0FA78796813461B019B1A43
:102880009B000B4426331B78022B10D17B681B68FE
:10289000FA781146184608F056FCFB785A013B6955
:1028A000134403F5A0631A46102393603DE0FA78C1
:1028B000796813461B019B1A9B000B4426331B7837
:1028C000032B0AD0FA78796813461B019B1A9B00E8
:1028D0000B4426331B78012B27D1FB785A013B6927
:1028E000134403F5A0631B68FA7851013A690A445E
:1028F00002F5A06243F000531360FA78796813463A
:102900001B019B1A9B000B444C3301221A70FA786E
:10291000796813461B019B1A9B000B444C331A78B1
:10292000FB781946786810F027FB7B689B79012BB0
:102930003BD1FA78796813461B019B1A9B000B4424
:1029400038331968FA78786813461B019B1A9B0084
:10295000034428331B880B44591EFA7878681346C1
:102960001B019B1A9B00034428331B88B1FBF3F324
:1029700003F00103002B00F07084FA7879681346A5
:102980001B019B1A9B000B443C331B78FA7883F0A5
:102990000103D8B2796813461B019B1A9B000B44B4
:1029A0003C3302461A7000F058BCFA787968134636
:1029B0001B019B1A9B000B443C331B78FA7883F075
:1029C0000103D8B2796813461B019B1A9B000B4484
:1029D0003C3302461A7000F040BC7B681B68FA78F2
:1029E0001146184607F011FE034603F02003202B82
:1029F00031D1FB785A013B69134403F5A0631A46B1
:102A000020239360FA78796813461B019B1A9B0078
:102A10000B441A331B78012B40F01F84FA78796835
:102A200013461B019B1A9B000B441B3301221A7097
:102A3000FA78796813461B019B1A9B000B444D33AF
:102A400003221A707B681B68FA781146184608F052
:102A50007AFB00F002BC7B681B68FA7811461846C6
:102A600007F0D3FD034603F00203022B40F0058379
:102A7000FB785A013B69134403F5A0631A4602230D
:102A80009360FA78796813461B019B1A9B000B44EC
:102A90004D331B78012B14D1FA78796813461B014A
:102AA0009B1A9B000B444D3302221A70FA78796806
:102AB00013461B019B1A9B000B444C3301221A70D6
:102AC000CCE2FA78796813461B019B1A9B000B44F1
:102AD0004D331B78062B14D1FA78796813461B0105
:102AE0009B1A9B000B444D3302221A70FA787968C6
:102AF00013461B019B1A9B000B444C3305221A7092
:102B0000ACE2FA78796813461B019B1A9B000B44D0
:102B10004D331B78072B0BD0FA78796813461B01CD
:102B20009B1A9B000B444D331B78092B40F0A68069
:102B3000FA78796813461B019B1A9B000B444D33AE
:102B400002221A70FA78796813461B019B1A9B00BF
:102B50000B4444331B68591C786813461B019B1AAD
:102B60009B00034444331960FA78796813461B01CB
:102B70009B1A9B000B4444331B68022B43D9FA7801
:102B8000796813461B019B1A9B000B4444330022B7
:102B90001A60FA78796813461B019B1A9B000B4454
:102BA0001A331B78012B23D1FA78796813461B015D
:102BB0009B1A9B000B441B3300221A70FA78796829
:102BC00013461B019B1A9B000B441C3300221A70F6
:102BD000FB785A013B69134403F5A0635B68FA78FC
:102BE00051013A690A4402F5A06223F4803353602C
:102BF000FA78796813461B019B1A9B000B444C33EF
:102C000004221A7029E2FA78796813461B019B1A8C
:102C10009B000B444C3302221A70FA7879681346F1
:102C20001B019B1A9B000B4426331B78002B0BD0F7
:102C3000FA78796813461B019B1A9B000B442633D4
:102C40001B78022B40F00982FB785A013B69134440
:102C500003F5A0631B68FB60FB6823F08043FB6007
:102C6000FB6843F00043FB60FB785A013B69134467
:102C700003F5A0631A46FB681360EEE1FA78796801
:102C800013461B019B1A9B000B444D331B78052BED
:102C900040F0C880FA78796813461B019B1A9B00A4
:102CA0000B444D3302221A70FA78796813461B01DF
:102CB0009B1A9B000B441B331B78012B40F0CE81E9
:102CC000FA78796813461B019B1A9B000B44263344
:102CD0001B78032B6BD1FA78796813461B019B1A7A
:102CE0009B000B4448331B68591C786813461B0132
:102CF0009B1A9B00034448331960FA78796813469D
:102D00001B019B1A9B000B4448331B68022B43D9C1
:102D1000FA78796813461B019B1A9B000B444833D1
:102D200000221A60FA78796813461B019B1A9B00EF
:102D30000B441B3300221A70FA78796813461B0182
:102D40009B1A9B000B4444331B68022B09D8FA786A
:102D5000796813461B019B1A9B000B441C3301220C
:102D60001A70FB785A013B69134403F5A0635B6852
:102D7000FA7851013A690A4402F5A06223F48033DB
:102D80005360FA78796813461B019B1A9B000B4429
:102D90004C3304221A7014E0FA78796813461B0148
:102DA0009B1A9B000B444C3302221A7009E0FA78FC
:102DB000796813461B019B1A9B000B444C3302227B
:102DC0001A70FA78796813461B019B1A9B000B4412
:102DD00026331B78002B0BD0FA78796813461B0139
:102DE0009B1A9B000B4426331B78022B40F0368144
:102DF000FB785A013B69134403F5A0631B68FB6031
:102E0000FB6823F08043FB60FB6843F00043FB60FA
:102E1000FB785A013B69134403F5A0631A46FB682B
:102E200013601BE1FA78796813461B019B1A9B001B
:102E30000B444D331B78032B40F08180FA7879687E
:102E400013461B019B1A9B000B444D3302221A7040
:102E5000FA78796813461B019B1A9B000B441B33BD
:102E60001B78012B40F0FA80FA78796813461B0131
:102E70009B1A9B000B444C3302221A70FB785A01B8
:102E80003B69134403F5A0635B68FA7851013A6922
:102E90000A4402F5A06243F480335360FB785A0180
:102EA0003B69134403F5A063DB68FA7851013A6982
:102EB0000A4402F5A06243F04003D360FB785A0154
:102EC0003B69134403F5A063DB68FA7851013A6962
:102ED0000A4402F5A06223F02003D360FA787968EF
:102EE00013461B019B1A9B000B4426331B78002BB7
:102EF0000BD0FA78796813461B019B1A9B000B4490
:102F000026331B78022B40F0A980FB785A013B69DD
:102F1000134403F5A0631B68FB60FB6823F0804348
:102F2000FB60FB6843F00043FB60FB785A013B69A0
:102F3000134403F5A0631A46FB6813608EE0FA7829
:102F4000796813461B019B1A9B000B444D331B7879
:102F5000042B43D1FA78796813461B019B1A9B0016
:102F60000B444D3302221A70FA78796813461B011C
:102F70009B1A9B000B444C3302221A70FA78796832
:102F800013461B019B1A9B000B4426331B78002B16
:102F90000AD0FA78796813461B019B1A9B000B44F0
:102FA00026331B78022B59D1FB785A013B69134415
:102FB00003F5A0631B68FB60FB6823F08043FB60A4
:102FC000FB6843F00043FB60FB785A013B69134404
:102FD00003F5A0631A46FB6813603FE0FA7879684E
:102FE00013461B019B1A9B000B444D331B78082B87
:102FF00026D1FA78796813461B019B1A9B000B4473
:103000004D3302221A70FA78796813461B019B1A15
:103010009B000B4444331B68591C786813461B0102
:103020009B1A9B00034444331960FA78796813466D
:103030001B019B1A9B000B444C3304221A700DE0B9
:10304000FA78796813461B019B1A9B000B444D3399
:103050001B78022B00F0008100E000BFFA7879684D
:1030600013461B019B1A9B000B444C331A78FB78C8
:10307000194678680FF080FFEFE07B681B68FA78EC
:103080001146184607F0C1FA034603F04003402BEF
:103090002FD1FB785A013B69134403F5A0631A460C
:1030A00040239360FA78796813461B019B1A9B00B2
:1030B0000B444D3305221A70FA78796813461B01C8
:1030C0009B1A9B000B441A331B78002B09D1FA780A
:1030D000796813461B019B1A9B000B444433002262
:1030E0001A607B681B68FA781146184608F02BF8BE
:1030F000B3E07B681B68FA781146184607F085FA3A
:10310000034603F01003102B40F0A780FA7879688B
:1031100013461B019B1A9B000B4426331B78032B81
:103120001BD1FA78796813461B019B1A9B000B444C
:10313000443300221A60FA78796813461B019B1AFF
:103140009B000B444D3304221A707B681B68FA788D
:103150001146184607F0F7FF3FE0FA787968134602
:103160001B019B1A9B000B4426331B78002B0AD0B3
:10317000FA78796813461B019B1A9B000B4426338F
:103180001B78022B29D1FA78796813461B019B1A08
:103190009B000B44443300221A607B689B79002B10
:1031A0000AD0FA78796813461B019B1A9B000B44DE
:1031B0001B331B78012B10D1FA78796813461B0159
:1031C0009B1A9B000B444D3304221A707B681B68CA
:1031D000FA781146184607F0B6FFFA787968134670
:1031E0001B019B1A9B000B441B331B78012B29D11D
:1031F000FA78796813461B019B1A9B000B441B331A
:1032000000221A70FB785A013B69134403F5A0634E
:103210005B68FA7851013A690A4402F5A06223F426
:1032200080335360FB785A013B69134403F5A06374
:10323000DB68FA7851013A690A4402F5A06243F06A
:103240002003D360FB785A013B69134403F5A06364
:103250001A461023936000E000BF1837BD4680BDBA
:1032600080B586B000AF78600B46FB707B681B684A
:103270007B617B693B617B681B68FA781146184665
:1032800007F0C3F9034603F00403042B1BD1FB78BA
:103290005A013B69134403F5A0631A460423936063
:1032A000FA78796813461B019B1A9B000B444D3337
:1032B00007221A707B681B68FA781146184607F0D7
:1032C00042FF00F089BC7B681B68FA7811461846FB
:1032D00007F09BF9034603F02003202B40F0828087
:1032E000FB785A013B69134403F5A0631A46202377
:1032F0009360FA78796813461B019B1A9B000B4474
:1033000019331B78012B24D1FA78796813461B01F5
:103310009B1A9B000B44193300221A70FA787968C3
:1033200013461B019B1A9B000B444C3302221A705C
:10333000FA78796813461B019B1A9B000B444D33A6
:1033400003221A707B681B68FA781146184607F04A
:10335000FAFEFA78796813461B019B1A9B000B440E
:103360001A331B78012B40F03784FA7879681346BA
:103370001B019B1A9B000B441B331B78002B40F056
:103380002B84FA78796813461B019B1A9B000B4427
:1033900026331B78012B09D0FA78796813461B0174
:1033A0009B1A9B000B441B3301221A70FA78796830
:1033B00013461B019B1A9B000B444D3303221A70CA
:1033C0007B681B68FA781146184607F0BCFEFA784D
:1033D000796813461B019B1A9B000B44443300225F
:1033E0001A60F9E37B681B68FA781146184607F003
:1033F0000CF9034603F40073B3F5007F11D1FB7899
:103400005A013B69134403F5A0631A464FF4007355
:1034100093607B681B68FA781146184607F093FEA4
:10342000DAE37B681B68FA781146184607F0EDF876
:10343000034603F00103012B68D1FA78796813463B
:103440001B019B1A9B000B44443300221A607B68CB
:103450001B68FA781146184607F0D7F8034603F0C0
:103460004003402B12D1FA78796813461B019B1A4E
:103470009B000B44193301221A70FB785A013B69F7
:10348000134403F5A0631A4640239360FA787968E1
:1034900013461B019B1A9B000B441B331B78002B0C
:1034A00019D0FA78796813461B019B1A9B000B44CC
:1034B0001B3300221A70FB785A013B69134403F551
:1034C000A0635B68FA7851013A690A4402F5A06288
:1034D00023F480335360FB785A013B69134403F5AE
:1034E000A0631A4601239360FA78796813461B019A
:1034F0009B1A9B000B444D3301221A707B681B689A
:10350000FA781146184607F01EFE65E37B681B68D3
:10351000FA781146184607F078F8034603F040039E
:10352000402B39D1FA78796813461B019B1A9B000E
:103530000B444D3305221A70FA78796813461B0143
:103540009B1A9B000B441A331B78002B09D1FA7885
:10355000796813461B019B1A9B000B441933012207
:103560001A70FA78796813461B019B1A9B000B446A
:10357000443300221A607B681B68FA7811461846AB
:1035800007F0E1FDFB785A013B69134403F5A063A2
:103590001A46402393601FE37B681B68FA78114644
:1035A000184607F032F8034603F00803082B1AD137
:1035B000FB785A013B69134403F5A0631A460823BC
:1035C0009360FA78796813461B019B1A9B000B44A1
:1035D0004D3306221A707B681B68FA78114618462C
:1035E00007F0B1FDF8E27B681B68FA7811461846CF
:1035F00007F00BF8034603F01003102B44D1FA78C0
:10360000796813461B019B1A9B000B44443300222C
:103610001A60FA78796813461B019B1A9B000B44C9
:103620004D3304221A70FA78796813461B019B1AED
:103630009B000B4419331B78002B14D1FA7879685E
:1036400013461B019B1A9B000B4418331B78002B5D
:1036500009D1FA78796813461B019B1A9B000B4429
:10366000193301221A707B681B68FA7811461846D4
:1036700007F069FDFB785A013B69134403F5A06329
:103680001A4610239360A7E27B681B68FA781146FC
:10369000184606F0BAFF034603F08003802B40F083
:1036A00083807B689B79002B11D1FA787968134667
:1036B0001B019B1A9B000B444D3307221A707B6839
:1036C0001B68FA781146184607F03DFD62E0FA786B
:1036D000796813461B019B1A9B000B4444331B68FB
:1036E000591C786813461B019B1A9B000344443302
:1036F0001960FA78796813461B019B1A9B000B44EA
:1037000044331B68022B22D9FA78796813461B01CF
:103710009B1A9B000B44443300221A60FA787968A4
:1037200013461B019B1A9B000B444C3304221A7056
:10373000FA78796813461B019B1A9B000B444C33A3
:103740001A78FB78194678680FF016FC22E0FA78B0
:10375000796813461B019B1A9B000B444C330222D1
:103760001A70FB785A013B69134403F5A0631B6888
:10377000FB60FB6823F08043FB60FB6843F0004381
:10378000FB60FB785A013B69134403F5A0631A46BA
:10379000FB681360FB785A013B69134403F5A0638F
:1037A0001A468023936017E27B681B68FA781146FB
:1037B000184606F02AFF034603F48063B3F5806FD2
:1037C0001BD1FA78796813461B019B1A9B000B44A6
:1037D0004D3309221A707B681B68FA781146184627
:1037E00007F0B1FCFB785A013B69134403F5A06371
:1037F0001A464FF480639360EEE17B681B68FA78A9
:103800001146184606F001FF034603F00203022B9F
:1038100040F0DF81FB785A013B69134403F5A06354
:103820001A4602239360FA78796813461B019B1AA3
:103830009B000B444D331B78012B40F09380FA78AA
:10384000796813461B019B1A9B000B444D330222DF
:103850001A70FA78796813461B019B1A9B000B4477
:103860004C3301221A70FA78796813461B019B1AAF
:103870009B000B4426331B78022B0BD0FA78796817
:1038800013461B019B1A9B000B4426331B78032B0A
:1038900040F090817B689B79002B15D1FA7879688C
:1038A00013461B019B1A9B000B443D331B78FA788F
:1038B00083F00103D8B2796813461B019B1A9B0061
:1038C0000B443D3302461A707B689B79012B40F014
:1038D0007181FA78796813461B019B1A9B000B448F
:1038E00034331B68002B00F06581FA787968134641
:1038F0001B019B1A9B000B4434331968FA787868D3
:1039000013461B019B1A9B00034428331B880B445E
:10391000591EFA78786813461B019B1A9B000344D2
:1039200028331B88B1FBF3F3BB60BB6803F00103D2
:10393000002B00F03F81FA78796813461B019B1A2F
:103940009B000B443D331B78FA7883F00103D8B217
:10395000796813461B019B1A9B000B443D330246BA
:103960001A7027E1FA78796813461B019B1A9B00AD
:103970000B444D331B78032B20D1FA78796813461A
:103980001B019B1A9B000B444D3302221A70FA78DC
:10399000796813461B019B1A9B000B441B331B7851
:1039A000012B40F00781FA78796813461B019B1AB6
:1039B0009B000B444C3302221A70FBE0FA787968C2
:1039C00013461B019B1A9B000B444D331B78042BA1
:1039D0003AD1FA78796813461B019B1A9B000B4475
:1039E0004D3302221A70FA78796813461B019B1A2C
:1039F0009B000B444C3302221A70FA787968134604
:103A00001B019B1A9B000B441B331B78012B40F0BE
:103A1000D180FA78796813461B019B1A9B000B44EE
:103A20001B3300221A70FB785A013B69134403F5DB
:103A3000A0635B68FA7851013A690A4402F5A06212
:103A400023F480335360B5E0FA78796813461B019C
:103A50009B1A9B000B444D331B78052B14D1FA782D
:103A6000796813461B019B1A9B000B444D330222BD
:103A70001A70FA78796813461B019B1A9B000B4455
:103A80004C3302221A7095E0FA78796813461B01CC
:103A90009B1A9B000B444D331B78062B14D1FA78EC
:103AA000796813461B019B1A9B000B444D3302227D
:103AB0001A70FA78796813461B019B1A9B000B4415
:103AC0004C3305221A7075E0FA78796813461B01A9
:103AD0009B1A9B000B444D331B78072B0AD0FA78B6
:103AE000796813461B019B1A9B000B444D331B78CE
:103AF000092B70D1FA78796813461B019B1A9B0039
:103B00000B444D3302221A70FA78796813461B0170
:103B10009B1A9B000B4444331B68591C786813465E
:103B20001B019B1A9B00034444331960FA7879689F
:103B300013461B019B1A9B000B4444331B68022B4A
:103B400014D9FA78796813461B019B1A9B000B4421
:103B5000443300221A60FA78796813461B019B1AD5
:103B60009B000B444C3304221A7022E0FA787968E7
:103B700013461B019B1A9B000B444C3302221A7004
:103B8000FB785A013B69134403F5A0631B68FB6093
:103B9000FB6823F08043FB60FB6843F00043FB605D
:103BA000FB785A013B69134403F5A0631A46FB688E
:103BB000136000BFFA78796813461B019B1A9B00BB
:103BC0000B444C331A78FB78194678680FF0D4F917
:103BD00002E000BF00E000BF1837BD4680BD80B5E1
:103BE0008AB000AF78607B681B687B627B6A3B624F
:103BF0007B681B681B6AFB61FB6903F00F03BB61F9
:103C0000FB695B0C03F00F037B61FB691B09C3F3CA
:103C10000A033B617B69022B04D07B69052B00F012
:103C2000B680B7E03B69002B00F0B3807968BA69D1
:103C300013461B019B1A9B000B442C331B68002B63
:103C400000F0A7807968BA6913461B019B1A9B0094
:103C50000B4438331A683B69D1187868BA6913463F
:103C60001B019B1A9B00034434331B68994200F2EA
:103C700083807B6818687968BA6913461B019B1AB0
:103C80009B000B442C331B683A6992B2194606F02C
:103C900051FC7968BA6913461B019B1A9B000B44BF
:103CA0002C331A683B69D1187868BA6913461B012E
:103CB0009B1A9B0003442C3319607968BA69134638
:103CC0001B019B1A9B000B4438331A683B69D118BF
:103CD0007868BA6913461B019B1A9B00034438336A
:103CE0001960BB695A013B6A134403F5A0631B6961
:103CF000DB0CC3F30903FB607968BA6913461B0147
:103D00009B1A9B000B4428331B881A463B6993423D
:103D10003FD1FB68002B3CD0BB695A013B6A13447E
:103D200003F5A0631B68BB60BB6823F08043BB60E6
:103D3000BB6843F00043BB60BB695A013B6A134454
:103D400003F5A0631A46BB6813607968BA69134625
:103D50001B019B1A9B000B443C331B7883F001032F
:103D6000D8B27968BA6913461B019B1A9B000B44B1
:103D70003C3302461A700CE07968BA6913461B019D
:103D80009B1A9B000B444C3304221A7001E000BFC5
:103D900000E000BF00BF2837BD4680BD80B586B0BB
:103DA00000AF78607B681B687B617B693B613B6926
:103DB00003F588631B68FB603B6903F588631B6838
:103DC000BB60BB6823F02E03BB60FB6803F00203FB
:103DD000022B0BD1FB6803F00103012B02D17868A1
:103DE0000FF0AEF8BB6843F00203BB60FB6803F062
:103DF0000803082B32D1BB6843F00803BB60FB68A3
:103E000003F00403042B26D17B685B7A022B13D1C9
:103E1000FB6803F4C023B3F5802F06D17B681B68D1
:103E20000221184606F010FD11E07B681B68012195
:103E3000184606F009FD0AE07B68DB79012B06D104
:103E40003B6903F580631A464EF660235360786839
:103E50000FF0A4F802E078680FF0AEF8FB6803F00A
:103E60002003202B03D1BB6843F02003BB603B69D8
:103E700003F588631A46BB68136000BF1837BD4658
:103E800080BD000080B582B000AF78607B68002BF9
:103E900001D101238BE07B6893F84130DBB2002B2A
:103EA00006D17B68002283F84020786808F01AFB6E
:103EB0007B68242283F841207B681B681A687B6832
:103EC0001B6822F001021A607B685A687B681B68D5
:103ED00022F070621A617B681B689A687B681B68B5
:103EE00022F400429A607B68DB68012B07D17B6873
:103EF0009A687B681B6842F400429A6006E07B681F
:103F00009A687B681B6842F404429A607B68DB68AD
:103F1000022B08D17B681B685A687B681B6842F4D7
:103F200000625A6007E07B681B685A687B681B6800
:103F300022F400625A607B681B6859687B681A68C3
:103F40001D4B0B4353607B681B68DA687B681B68FA
:103F500022F40042DA607B681A697B685B6942EA96
:103F600003017B689B691A027B681B680A43DA605D
:103F70007B68D9697B681A6A7B681B680A431A6088
:103F80007B681B681A687B681B6842F001021A6034
:103F90007B6800225A647B68202283F841207B687A
:103FA00000221A637B68002283F84220002318460F
:103FB0000837BD4680BD00BF0080000280B483B0DA
:103FC00000AF786039607B6893F84130DBB2202B1A
:103FD00038D17B6893F84030012B01D1022332E0C5
:103FE0007B68012283F840207B68242283F84120EB
:103FF0007B681B681A687B681B6822F001021A60E4
:104000007B681B681A687B681B6822F480521A6000
:104010007B681B6819687B681B683A680A431A60EA
:104020007B681B681A687B681B6842F001021A6093
:104030007B68202283F841207B68002283F840209F
:10404000002300E0022318460C37BD465DF8047BD0
:10405000704780B485B000AF786039607B6893F8B2
:104060004130DBB2202B39D17B6893F84030012BF3
:1040700001D1022333E07B68012283F840207B6872
:10408000242283F841207B681B681A687B681B68C0
:1040900022F001021A607B681B681B68FB60FB68EA
:1040A00023F47063FB603B681B02FA681343FB60F8
:1040B0007B681B68FA681A607B681B681A687B68F3
:1040C0001B6842F001021A607B68202283F84120BD
:1040D0007B68002283F84020002300E0022318467A
:1040E0001437BD465DF8047B704780B584B000AFDF
:1040F00078607B68002B01D101238FE07B6893F807
:10410000A130DBB2002B06D17B68002283F8A0200F
:10411000786808F011FB7B68022283F8A1207B6895
:104120001B689A697B681B6822F070429A617B6801
:104130001B6899697B685A687B689B681A437B682F
:10414000DB681A437B681B691A437B681B680A4358
:104150009A617B685B691B04FB607B6899697B687B
:104160001B68FA680A439A607B68DB691B04FB6082
:104170007B68196A7B681B68FA680A43DA607B68A7
:104180005B6A1B04FB607B68996A7B681B68FA6842
:104190000A431A617B68DB6A1B04FB607B68196B4E
:1041A0007B681B68FA680A435A617B6893F835306C
:1041B0001B02FB607B6893F836301B04BB607B6896
:1041C0001B68DA6A7B681B6802F07F42DA627B68F0
:1041D0001B68D96ABA68FB6813437A6892F834207E
:1041E0001A437B681B680A43DA627B681B685A6B58
:1041F0007B681B6842F006025A637B681B689A69F9
:104200007B681B6842F001029A617B680022C3F858
:10421000A4207B68012283F8A120002318461037D0
:10422000BD4680BD80B584B000AF78607B681B68F8
:104230009B6BFB607B681B685B6BBB60FB6803F080
:104240000403002B23D0BB6803F00403002B1ED013
:104250007B681B685A6B7B681B6822F004025A63F8
:104260007B681B680422DA637B68D3F8A43043F0D0
:1042700001027B68C3F8A4207B68042283F8A12094
:104280007B68002283F8A020786800F06FF8FB6854
:1042900003F00203002B23D0BB6803F00203002BC2
:1042A0001ED07B681B685A6B7B681B6822F0020279
:1042B0005A637B681B680222DA637B68D3F8A430F8
:1042C00043F002027B68C3F8A4207B68042283F8D1
:1042D000A1207B68002283F8A020786800F046F8CF
:1042E000FB6803F00103002B1BD0BB6803F0010344
:1042F000002B16D07B681B685A6B7B681B6822F00A
:1043000001025A637B681B680122DA637B68012221
:1043100083F8A1207B68002283F8A020786800F051
:104320002FF8FB6803F00803002B1BD0BB6803F0D9
:104330000803002B16D07B681B685A6B7B681B68D0
:1043400022F008025A637B681B680822DA637B68E4
:10435000012283F8A1207B68002283F8A0207868DE
:1043600000F018F800BF1037BD4680BD80B483B0A0
:1043700000AF786000BF0C37BD465DF8047B704726
:1043800080B483B000AF786000BF0C37BD465DF8E5
:10439000047B704780B483B000AF786000BF0C37F7
:1043A000BD465DF8047B7047B0B584B000AFF860DF
:1043B000B9607A60FB6893F8A030012B01D1022329
:1043C0002CE0FB68012283F8A020FB68022283F81E
:1043D000A120FA687B68342101FB03F3134403F145
:1043E0003802BB6814461D460FCD0FC40FCD0FC455
:1043F0000FCD0FC42B6823607A68B968F86800F0A5
:1044000011F8FB681B6801225A62FB68012283F8DD
:10441000A120FB68002283F8A02000231846103753
:10442000BD46B0BD80B489B000AFF860B9607A60B5
:10443000BB685A68FB681B68DB681B0CC3F30B0383
:1044400013441B04FB61FB681B681A467B68DB0195
:10445000134484335B68FA68126811467A68D201A3
:104460000A44843203F470435360BB681A68FB68E3
:104470001B68DB681B0CC3F30B0313445A1CFB685B
:104480001B6819467B68DB010B4484331946FB69C2
:1044900013434B60BB68DA68FB681B68DB68C3F3D7
:1044A0000A0313441B04FB61FB681B681A467B6804
:1044B000DB01134484339B68FA68126811467A68FA
:1044C000D2010A44843203F470439360BB689A6853
:1044D000FB681B68DB68C3F30A0313445A1CFB68C0
:1044E0001B6819467B68DB010B4484331946FB6962
:1044F00013438B60FB681B681A467B68DB0113441F
:1045000084331B69FA68126811467A68D2010A443A
:10451000843223F007031361FB681B681A467B682B
:10452000DB01134484331A46BB681B691361BB6803
:1045300093F831301B02FB61BB6893F832301B04E7
:10454000BB61BB689B691B067B61BB6893F830301D
:104550001A46FB691A43BB691A43FB681B68194674
:104560007B68DB010B44843319467B6913438B6101
:10457000FB681B681A467B68DB01134484335B6964
:10458000FA68126811467A68D2010A44843223F02C
:10459000FF035361FB681B681A467B68DB01134409
:1045A00084331A46BB685B695361FB681B681A4613
:1045B0007B68DB0113448433DA69FB681B681946A6
:1045C0007B68DB010B44843319464F4B1340CB61AE
:1045D000BB68DA69BB681B6AF968096808467968CC
:1045E000C901014484311343CB61FB681B681A463F
:1045F0007B68DB01134484331A46BB685B6A9362B1
:10460000BB681B69002B02D10423FB611BE0BB6864
:104610001B69012B02D10323FB6114E0BB681B69FA
:10462000042B0BD0BB681B69022B07D0BB681B692E
:10463000032B03D0BB681B69072B02D10223FB614C
:1046400001E00123FB61FB681B681A467B68DB0104
:1046500013448433DB6AFA68126811467A68D2011F
:104660000A44843203F0E023D362BB689B6AFA6990
:1046700002FB03F31A04BB685968BB681B68CB1ABA
:10468000F96901FB03F30333F9680968084679689F
:10469000C901014484311343CB62FB681B681A468D
:1046A0007B68DB01134484331A6BFB681B68194673
:1046B0007B68DB010B4484331946144B13400B63B6
:1046C000FB681B681A467B68DB01134484331A4677
:1046D000BB68DB6A1363FB681B681A467B68DB01F7
:1046E000134484331B68FA68126811467A68D20151
:1046F0000A44843243F00103136000BF2437BD46EF
:104700005DF8047B704700BFF8F8FFFF00F8FFFF7B
:1047100080B586B002AF7860FBF7DCFDF8607B689F
:10472000002B01D1012367E07B6893F84130DBB2B5
:10473000002B0BD17B68002283F84020786808F0BA
:10474000EFF841F28831786800F05EF87B681B680A
:104750001B6823F4F8517B689B68013B1A027B6855
:104760001B680A431A607B689B6C0093FB680022FD
:104770002021786800F056F80346FB72FB7A002B84
:1047800035D17B681B681A681D4B13407A685268E4
:1047900011067A68D26811437A68D26911437A683F
:1047A000126A11437A6812680B4313607B681B68B6
:1047B0005A68144B13407A68126911047A68526976
:1047C00011437A68926911437A6812680B43536007
:1047D0007B681B681A687B681B6842F001021A60DC
:1047E0007B6800225A647B68012283F841207B6841
:1047F000002283F84020FB7A18461037BD4680BD62
:104800002FFFFF00FEF8E0FF80B483B000AF7860B8
:1048100039607B683A689A6400BF0C37BD465DF822
:10482000047B704780B584B000AFF860B9603B602E
:104830001346FB711AE0BB69B3F1FF3F16D0FBF7DB
:1048400049FD02463B68D31ABA699A4202D3BB6952
:10485000002B0BD1FB68042283F84120FB685B6CC2
:1048600043F00102FB685A6401230EE0FB681B68F9
:104870009A68BB681340002B14BF01230023DBB2EE
:104880001A46FB799A42D6D1002318461037BD4606
:1048900080BD000080B586B000AF78600023FB7556
:1048A0007B68002B01D1012391E27B681B6803F038
:1048B0000103002B00F08780964B9B6803F00C03EC
:1048C000042B0CD0934B9B6803F00C03082B12D1E4
:1048D000904B5B6803F48003B3F5800F0BD18D4BD5
:1048E0001B6803F40033002B6CD07B685B68002BE3
:1048F00068D101236BE27B685B68B3F5803F06D12A
:10490000844B1B68834A43F4803313602EE07B683A
:104910005B68002B0CD17F4B1B687E4A23F48033ED
:1049200013607C4B1B687B4A23F4802313601DE0DB
:104930007B685B68B3F5A02F0CD1764B1B68754A7A
:1049400043F480231360734B1B68724A43F4803333
:1049500013600BE06F4B1B686E4A23F480331360C7
:104960006C4B1B686B4A23F4802313607B685B6885
:10497000002B13D0FBF7AEFC386108E0FBF7AAFC74
:1049800002463B69D31A642B01D903231FE2614B12
:104990001B6803F40033002BF0D014E0FBF79AFC03
:1049A000386108E0FBF796FC02463B69D31A642B9A
:1049B00001D903230BE2574B1B6803F40033002B90
:1049C000F0D100E000BF7B681B6803F00203002BFE
:1049D00069D0504B9B6803F00C03002B0BD04D4B60
:1049E0009B6803F00C03082B1CD14A4B5B6803F453
:1049F0008003002B16D1474B1B6803F00203002BEA
:104A000005D07B68DB68012B01D00123DFE1414B3E
:104A10001B6823F0F8027B681B69DB003D491343E8
:104A20000B6040E07B68DB68002B23D0394B1B68B0
:104A3000384A43F001031360FBF74CFC386108E08F
:104A4000FBF748FC02463B69D31A022B01D903232A
:104A5000BDE1304B1B6803F00203002BF0D02D4B5F
:104A60001B6823F0F8027B681B69DB0029491343AC
:104A70000B6018E0274B1B68264A23F001031360E4
:104A8000FBF728FC386108E0FBF724FC02463B6991
:104A9000D31A022B01D9032399E11E4B1B6803F0A3
:104AA0000203002BF0D17B681B6803F00803002B86
:104AB00038D07B685B69002B19D0164B5B6F154AA9
:104AC00043F001035367FBF705FC386108E0FBF78F
:104AD00001FC02463B69D31A022B01D9032376E17C
:104AE0000C4B5B6F03F00203002BF0D01AE0094B74
:104AF0005B6F084A23F001035367FBF7EBFB386158
:104B00000AE0FBF7E7FB02463B69D31A022B03D905
:104B100003235CE100380240914B5B6F03F002031A
:104B2000002BEED17B681B6803F00403002B00F020
:104B3000A4808B4B1B6C03F08053002B0DD1884B52
:104B40001B6C874A43F080531364854B1B6C03F046
:104B50008053BB60BB680123FB75824B1B6803F469
:104B60008073002B18D17F4B1B687E4A43F48073FF
:104B70001360FBF7AFFB386108E0FBF7ABFB0246C5
:104B80003B69D31A642B01D9032320E1754B1B68C1
:104B900003F48073002BF0D07B689B68012B06D157
:104BA0006F4B1B6F6E4A43F0010313672DE07B6868
:104BB0009B68002B0CD16A4B1B6F694A23F00103E1
:104BC0001367674B1B6F664A23F0040313671CE0EF
:104BD0007B689B68052B0CD1614B1B6F604A43F0CF
:104BE000040313675E4B1B6F5D4A43F001031367B9
:104BF0000BE05B4B1B6F5A4A23F001031367584BC2
:104C00001B6F574A23F0040313677B689B68002BD4
:104C100015D0FBF75FFB38610AE0FBF75BFB024650
:104C20003B69D31A41F28832934201D90323CEE083
:104C30004B4B1B6F03F00203002BEED014E0FBF78D
:104C400049FB38610AE0FBF745FB02463B69D31A92
:104C500041F28832934201D90323B8E0404B1B6FE5
:104C600003F00203002BEED1FB7D012B05D13C4B61
:104C70001B6C3B4A23F0805313647B689B69002BB9
:104C800000F0A480364B9B6803F00C03082B6BD01C
:104C90007B689B69022B49D1314B1B68304A23F05A
:104CA00080731360FBF716FB386108E0FBF712FB1B
:104CB00002463B69D31A022B01D9032387E0284B14
:104CC0001B6803F00073002BF0D17B68DA697B6806
:104CD0001B6A1A437B685B6A9B011A437B689B6A69
:104CE0005B08013B1B041A437B68DB6A1B0613430A
:104CF0001B4A43F000535360194B1B68184A43F09A
:104D000080731360FBF7E6FA386108E0FBF7E2FA1C
:104D100002463B69D31A022B01D9032357E0104BFB
:104D20001B6803F00073002BF0D04FE00C4B1B68A6
:104D30000B4A23F080731360FBF7CCFA386108E06C
:104D4000FBF7C8FA02463B69D31A022B01D90323A9
:104D50003DE0034B1B6803F00073002BF0D135E0FE
:104D600000380240007000401B4B5B68FB607B68B2
:104D70009B69012B28D0FB6803F480027B68DB6908
:104D80009A4221D1FB6803F03F027B681B6A9A427A
:104D90001AD1FA6847F6C07313407A68526A9201D2
:104DA000934211D1FB6803F440327B689B6A5B0835
:104DB000013B1B049A4207D1FB6803F070627B68D9
:104DC000DB6A1B069A4201D0012300E0002318464B
:104DD0001837BD4680BD00BF0038024080B584B0A2
:104DE00000AF786039600023FB607B68002B01D145
:104DF0000123D0E06A4B1B6803F00F033A689A4224
:104E000010D9674B1B6823F00F0265493B681343B9
:104E10000B60634B1B6803F00F033A689A4201D0A2
:104E20000123B8E07B681B6803F00203002B20D04D
:104E30007B681B6803F00403002B05D0594B9B686B
:104E4000584A43F4E05393607B681B6803F00803FF
:104E5000002B05D0534B9B68524A43F46043936048
:104E6000504B9B6823F0F0027B689B684D491343CD
:104E70008B607B681B6803F00103002B40D07B68CC
:104E80005B68012B07D1474B1B6803F40033002BF1
:104E900015D101237FE07B685B68022B07D1414B72
:104EA0001B6803F00073002B09D1012373E03D4B15
:104EB0001B6803F00203002B01D101236BE0394B87
:104EC0009B6823F003027B685B68364913438B6061
:104ED000FBF700FAF8600AE0FBF7FCF90246FB6812
:104EE000D31A41F28832934201D9032353E02D4B68
:104EF0009B6803F00C027B685B689B009A42EBD1D5
:104F0000274B1B6803F00F033A689A4210D2244BD8
:104F10001B6823F00F0222493B6813430B60204BB0
:104F20001B6803F00F033A689A4201D0012332E074
:104F30007B681B6803F00403002B08D0194B9B68A7
:104F400023F4E0527B68DB68164913438B607B686F
:104F50001B6803F00803002B09D0124B9B6823F455
:104F600060427B681B69DB000E4913438B6000F0D5
:104F700021F802460B4B9B681B0903F00F030A49FB
:104F8000CB5C22FA03F3094A1360094B1B681846ED
:104F900008F03CF9002318461037BD4680BD00BF1D
:104FA000003C024000380240403A0108080000205E
:104FB000000000202DE9B04F90B000AF00237B63CC
:104FC0000023FB6300233B630023BB63584B9B68B8
:104FD00003F00C03082B0DD0082B00F2A080002B4F
:104FE00002D0042B03D09AE0524BBB639AE0524BA1
:104FF000BB6397E04E4B5B6803F03F037B634C4B16
:105000005B6803F48003002B27D0494B5B689B0946
:1050100000223B627A623B6AC3F308000021464BE0
:1050200003FB01F2002300FB03F31344424AA0FBFD
:105030000221F962BA62FA6A1344FB627B6B0022B6
:10504000BB61FA61D7E90623D7E90A01FBF7C0F88B
:1050500002460B461346FB6353E0354B5B689B09E6
:1050600000223B617A613B69C3F3080A4FF0000BF1
:1050700052465B464FF000004FF00001590141EAF3
:10508000D261500102460B46B2EB0A0863EB0B09F2
:105090004FF000024FF000034FEA891343EA986390
:1050A0004FEA8812B2EB080463EB09054FF00002E7
:1050B0004FF00003EB0043EA5473E20014461D4630
:1050C00014EB0A033B6045EB0B037B604FF00002DF
:1050D0004FF00003D7E9004529468B02214643EAF9
:1050E000915321468A02104619467B6B0022BB6011
:1050F000FA60D7E90223FBF76BF802460B4613462A
:10510000FB630B4B5B681B0C03F0030301335B0079
:105110003B63FA6B3B6BB2FBF3F3BB6302E0054B03
:10512000BB6300BFBB6B18464037BD46BDE8B08FC0
:10513000003802400024F40040787D0180B400AFC4
:10514000034B1B681846BD465DF8047B704700BFE3
:105150000800002080B500AFFFF7F0FF0246054BC6
:105160009B689B0A03F007030349CB5C22FA03F315
:10517000184680BD00380240503A010880B500AFA3
:10518000FFF7DCFF0246054B9B685B0B03F0070350
:105190000349CB5C22FA03F3184680BD0038024075
:1051A000503A010880B483B000AF786039607B6802
:1051B0000F221A60124B9B6803F003027B685A604F
:1051C0000F4B9B6803F0F0027B689A600C4B9B6866
:1051D00003F4E0527B68DA60094B9B68DB0803F458
:1051E000E0527B681A61074B1B6803F00F023B68B3
:1051F0001A6000BF0C37BD465DF8047B704700BFE6
:1052000000380240003C024080B588B000AF7860B2
:1052100000237B6100233B610023FB600023FB61D3
:105220000023BB617B681B6803F00103002B12D0D5
:10523000694B9B68684A23F400039360664B9A6845
:105240007B685B6B644913438B607B685B6B002BF3
:1052500001D10123FB617B681B6803F40023002B51
:1052600017D05D4BD3F88C3023F440127B68DB6B96
:1052700059491343C1F88C307B68DB6BB3F5801F51
:1052800001D10123FB617B68DB6B002B01D1012382
:10529000BB617B681B6803F48013002B17D04E4B57
:1052A000D3F88C3023F440027B681B6C4A491343CB
:1052B000C1F88C307B681B6CB3F5800F01D10123E2
:1052C000FB617B681B6C002B01D10123BB617B68F8
:1052D0001B6803F08073002B01D00123FB617B6806
:1052E0001B6803F02003002B00F08B803A4B1B6CF3
:1052F000394A43F080531364374B1B6C03F08053DF
:10530000BB60BB68354B1B68344A43F48073136041
:10531000FAF7E0FF786108E0FAF7DCFF02467B6904
:10532000D31A642B01D9032357E32C4B1B6803F4D6
:105330008073002BF0D0284B1B6F03F440733B614C
:105340003B69002B35D07B681B6B03F440733A69D3
:105350009A422ED0204B1B6F23F440733B611E4BAF
:105360001B6F1D4A43F4803313671B4B1B6F1A4A94
:1053700023F480331367184A3B691367164B1B6F7E
:1053800003F00103012B14D1FAF7A4FF78610AE0BE
:10539000FAF7A0FF02467B69D31A41F288329342A2
:1053A00001D9032319E30C4B1B6F03F00203002BFD
:1053B000EED07B681B6B03F44073B3F5407F11D1D3
:1053C000054B9B6823F4F8127B68196B044B0B4068
:1053D000014913438B600BE000380240007000402D
:1053E000FFFCFF0FAA4B9B68A94A23F4F8139360B4
:1053F000A74B1A6F7B681B6BC3F30B03A4491343C2
:105400000B677B681B6803F01003002B10D0A04BC8
:10541000D3F88C309E4A23F08073C2F88C309C4BBA
:10542000D3F88C207B689B6B99491343C1F88C306F
:105430007B681B6803F48043002B0AD0944BD3F89D
:10544000903023F440327B685B6E91491343C1F87E
:1054500090307B681B6803F40043002B0AD08C4B10
:10546000D3F8903023F440227B689B6E8849134325
:10547000C1F890307B681B6803F48033002B0AD09E
:10548000834BD3F8903023F440127B68DB6E804965
:105490001343C1F890307B681B6803F40033002B82
:1054A0000AD07B4BD3F8903023F440027B681B6F0B
:1054B00077491343C1F890307B681B6803F04003C1
:1054C000002B0AD0724BD3F8903023F003027B6894
:1054D0005B6C6F491343C1F890307B681B6803F025
:1054E0008003002B0AD06A4BD3F8903023F00C02D3
:1054F0007B689B6C66491343C1F890307B681B68DE
:1055000003F48073002B0AD0614BD3F8903023F062
:1055100030027B68DB6C5E491343C1F890307B68D6
:105520001B6803F40073002B0AD0594BD3F890305A
:1055300023F0C0027B681B6D55491343C1F89030BE
:105540007B681B6803F48063002B0AD0504BD3F8B0
:10555000903023F440727B685B6D4D491343C1F872
:1055600090307B681B6803F40063002B0AD0484B23
:10557000D3F8903023F440627B689B6D4449134319
:10558000C1F890307B681B6803F48053002B0AD06D
:105590003F4BD3F8903023F440527B68DB6D3C499D
:1055A0001343C1F890307B681B6803F40053002B51
:1055B0000AD0374BD3F8903023F440427B681B6EFF
:1055C00033491343C1F890307B681B6803F48003B0
:1055D000002B0AD02E4BD3F8903023F080627B68EA
:1055E0009B6F2B491343C1F890307B681B6803F411
:1055F0000013002B11D0264BD3F8903023F000621B
:105600007B68DB6F22491343C1F890307B68DB6F06
:10561000B3F1006F01D10123BB617B681B6803F00C
:105620000803002B01D00123BB617B681B6803F4D6
:105630008023002B0AD0164BD3F8903023F0407211
:105640007B685B6F12491343C1F890307B681B681D
:1056500003F40003002B0BD00D4BD3F8903023F054
:1056600080527B68D3F8803009491343C1F89030E9
:10567000FB69012B06D07B681B6803F00073002BCD
:1056800000F0D980024B1B68014A23F0806301E0DF
:10569000003802401360FAF71DFE786108E0FAF75F
:1056A00019FE02467B69D31A642B01D9032394E1C6
:1056B0006C4B1B6803F00063002BF0D17B681B6808
:1056C00003F00103002B21D07B685B6B002B1DD105
:1056D000644BD3F884301B0C03F003033B61614B34
:1056E000D3F884301B0E03F00F03FB607B685B680C
:1056F0009A013B691B041A43FB681B061A437B682B
:105700009B681B0757491343C1F884307B681B68AB
:1057100003F40023002B04D07B68DB6BB3F5801F00
:105720000AD07B681B6803F48013002B2ED07B68A3
:105730001B6CB3F5800F29D14A4BD3F884301B0C76
:1057400003F003033B61474BD3F884301B0F03F096
:105750000703FB607B685B689A013B691B041A4383
:105760007B68DB681B061A43FB681B073D49134334
:10577000C1F884303B4BD3F88C3023F01F027B6898
:105780005B6A013B37491343C1F88C307B681B6867
:1057900003F08073002B1DD0324BD3F884301B0EE6
:1057A00003F00F033B612F4BD3F884301B0F03F042
:1057B0000703FB607B685B689A017B681B691B04BD
:1057C0001A433B691B061A43FB681B072549134311
:1057D000C1F884307B681B6803F00073002B11D084
:1057E0007B685B689A017B681B691B041A437B68B2
:1057F000DB681B061A437B689B681B071949134328
:10580000C1F88430174B1B68164A43F0806313605D
:10581000FAF760FD786108E0FAF75CFD02467B6903
:10582000D31A642B01D90323D7E00E4B1B6803F076
:105830000063002BF0D0BB69012B40F0CD80094BF9
:105840001B68084A23F080531360FAF743FD786120
:105850000AE0FAF73FFD02467B69D31A642B03D9AD
:105860000323BAE0003802405E4B1B6803F000538C
:10587000B3F1005FEDD07B681B6803F40023002BBD
:1058800003D07B68DB6B002B09D07B681B6803F4BB
:105890008013002B2ED07B681B6C002B2AD1514B20
:1058A000D3F888301B0C03F003033B614D4BD3F856
:1058B00088301B0F03F00703FB607B685B699A016C
:1058C0003B691B041A437B689B691B061A43FB68F0
:1058D0001B0744491343C1F88830424BD3F88C303E
:1058E00023F4F8527B689B6A013B1B023D4913433A
:1058F000C1F88C307B681B6803F40013002B22D0A6
:105900007B68DB6FB3F1006F1DD1364BD3F8883065
:105910001B0E03F00F033B61324BD3F888301B0F93
:1059200003F00703FB607B685B699A017B681B6A75
:105930001B041A433B691B061A43FB681B072949D2
:105940001343C1F888307B681B6803F00803002B01
:1059500028D0244BD3F888301B0E03F00F033B6193
:10596000204BD3F888301B0C03F00303FB607B68EB
:105970005B699A01FB681B041A433B691B061A43C7
:105980007B68DB691B0717491343C1F88830154B47
:10599000D3F88C3023F440327B68DB6A114913431F
:1059A000C1F88C300F4B1B680E4A43F080531360D4
:1059B000FAF790FC786108E0FAF78CFC02467B6904
:1059C000D31A642B01D9032307E0064B1B6803F0AD
:1059D0000053B3F1005FEFD1002318462037BD46D6
:1059E00080BD00BF0038024080B487B000AF78604F
:1059F0000023FB6000237B6100233B610023BB602D
:105A00007B68B3F5002F40F08D80934BD3F88C303A
:105A1000BB60BB6803F44013BB60BB68B3F5001FF9
:105A20007CD0BB68B3F5001F7BD8BB68002B04D0CB
:105A3000BB68B3F5801F39D073E0874B5B6803F414
:105A40008003002B08D1844B5B6803F03F03834A3B
:105A5000B2FBF3F33B6107E07F4B5B6803F03F036E
:105A60007F4AB2FBF3F33B617B4BD3F888301B0ECC
:105A700003F00F03FB60784BD3F888309B09C3F326
:105A800008033A6903FB02F2FB68B2FBF3F37B61A4
:105A9000714BD3F88C301B0A03F01F030133FB60FA
:105AA0007A69FB68B2FBF3F37B613BE06A4B5B68AE
:105AB00003F48003002B08D1674B5B6803F03F03BE
:105AC000664AB2FBF3F33B6107E0634B5B6803F0AC
:105AD0003F03634AB2FBF3F33B615F4BD3F884307F
